:020000040800F2
:10000000000002204D3E00088D370008913700089F
:1000100095370008993700089D3700080000000058
:10002000000000000000000000000000A1370008F0
:10003000A537000800000000A9370008AD37000808
:100040009D3E00089D3E00089D3E00089D3E000824
:100050009D3E00089D3E0008B5370008C1370008E6
:10006000CD370008D93700089D3E00089D3E0008A6
:100070009D3E00089D3E00089D3E00089D3E0008F4
:100080009D3E0008E5370008F53700080000000035
:10009000000000000000000000000000053800081B
:1000A0009D3E00089D3E00089D3E00089D3E0008C4
:1000B000253800089D3E0008353800089D3E0008A0
:1000C0009D3E00089D3E00089D3E00089D3E0008A4
:1000D0009D3E00089D3E00084538000800000000D5
:1000E000553800089D3E00089D3E000800000000B5
:1000F0000000000000000000000000009D3E00081D
:10010000000000009D3E00089D3E00089D3E000846
:1001100000000000000000000000000000000000DF
:100120009D3E00089D3E00089D3E00089D3E000843
:100130009D3E0008000000000000000000000000DC
:100140000000000000000000000000009D3E0008CC
:100150009D3E00089D3E00089D3E00089D3E000813
:100160009D3E00089D3E00080000000000000000C9
:10017000000000000000000000000000000000007F
:10018000000000009D3E000800000000000000008C
:080190009D3E00089D3E0008A1
:1001A00010B5054C237833B9044B13B10448AFF3B1
:1001B00000800123237010BD2401002000000000F6
:1001C000E0480008084B10B51BB108490848AFF3D8
:1001D00000800848036803B910BD074B002BFBD013
:1001E000BDE81040184700BF0000000028010020B3
:1001F000E0480008240100200000000081F00041D8
:1002000002E000BF83F0004330B54FEA41044FEAFB
:10021000430594EA050F08BF90EA020F1FBF54EA96
:10022000000C55EA020C7FEA645C7FEA655C00F032
:10023000E2804FEA5454D4EB5555B8BF6D420CDD03
:100240002C4480EA020281EA030382EA000083EA86
:10025000010180EA020281EA0303362D88BF30BD26
:1002600011F0004F4FEA01314FF4801C4CEA11317C
:1002700002D0404261EB410113F0004F4FEA0333DB
:100280004CEA133302D0524263EB430394EA050F66
:1002900000F0A780A4F10104D5F1200E0DDB02FAD5
:1002A0000EFC22FA05F2801841F1000103FA0EF269
:1002B000801843FA05F359410EE0A5F120050EF12F
:1002C000200E012A03FA0EFC28BF4CF0020C43FA60
:1002D00005F3C01851EBE37101F0004507D54FF06D
:1002E000000EDCF1000C7EEB00006EEB0101B1F5BD
:1002F000801F1BD3B1F5001F0CD349085FEA300003
:100300004FEA3C0C04F101044FEA445212F5800F0D
:1003100080F09A80BCF1004F08BF5FEA500C50F1AA
:10032000000041EB045141EA050130BD5FEA4C0C8D
:10033000404141EB010111F4801FA4F10104E9D116
:1003400091F0000F04BF01460020B1FA81F308BF0D
:100350002033A3F10B03B3F120020CDA0C3208DDD9
:1003600002F1140CC2F10C0201FA0CF021FA02F1B4
:100370000CE002F11402D8BFC2F1200C01FA02F124
:1003800020FA0CFCDCBF41EA0C019040E41AA2BF49
:1003900001EB0451294330BD6FEA04041F3C1CDA11
:1003A0000C340EDC04F11404C4F1200220FA04F031
:1003B00001FA02F340EA030021FA04F345EA0301DB
:1003C00030BDC4F10C04C4F1200220FA02F001FA9D
:1003D00004F340EA0300294630BD21FA04F029461F
:1003E00030BD94F0000F83F4801306BF81F48011B8
:1003F0000134013D4EE77FEA645C18BF7FEA655C2B
:1004000029D094EA050F08BF90EA020F05D054EAFC
:10041000000C04BF1946104630BD91EA030F1EBF01
:100420000021002030BD5FEA545C05D14000494105
:1004300028BF41F0004130BD14F580043CBF01F5F8
:10044000801130BD01F0004545F0FE4141F47001DE
:100450004FF0000030BD7FEA645C1ABF19461046B9
:100460007FEA655C1CBF0B46024650EA013406BFBA
:1004700052EA033591EA030F41F4002130BD00BF79
:1004800090F0000F04BF0021704730B54FF4806436
:1004900004F132044FF000054FF0000150E700BFB7
:1004A00090F0000F04BF0021704730B54FF4806416
:1004B00004F1320410F0004548BF40424FF0000103
:1004C0003EE700BF42004FEAE2014FEA31014FEA46
:1004D00002701FBF12F07F4393F07F4F81F0605195
:1004E000704792F0000F14BF93F07F4F704730B504
:1004F0004FF4607401F0004521F0004120E700BF97
:1005000050EA010208BF704730B54FF000050AE01D
:1005100050EA010208BF704730B511F0004502D51E
:10052000404261EB41014FF4806404F132045FEA20
:10053000915C3FF4DCAE4FF003025FEADC0C18BFC5
:1005400003325FEADC0C18BF033202EBDC02C2F1BB
:10055000200300FA03FC20FA02F001FA03FE40EA4D
:100560000E0021FA02F11444C1E600BF70B54FF04D
:10057000FF0C4CF4E06C1CEA11541DBF1CEA13552F
:1005800094EA0C0F95EA0C0F00F0DEF82C4481EA97
:10059000030621EA4C5123EA4C5350EA013518BFB7
:1005A00052EA033541F4801143F4801338D0A0FBA4
:1005B00002CE4FF00005E1FB02E506F00042E0FB51
:1005C00003E54FF00006E1FB03569CF0000F18BF57
:1005D0004EF0010EA4F1FF04B6F5007F64F54074FF
:1005E00004D25FEA4E0E6D4146EB060642EAC62192
:1005F00041EA55514FEAC52040EA5E504FEACE2EFF
:10060000B4F1FD0C88BFBCF5E06F1ED8BEF1004F01
:1006100008BF5FEA500E50F1000041EB045170BD7D
:1006200006F0004646EA010140EA020081EA0301C1
:10063000B4EB5C04C2BFD4EB0C0541EA045170BDBD
:1006400041F480114FF0000E013C00F3AB8014F137
:10065000360FDEBF002001F0004170BDC4F1000480
:10066000203C35DA0C341BDC04F11404C4F1200501
:1006700000FA05F320FA04F001FA05F240EA02005C
:1006800001F0004221F0004110EBD37021FA04F692
:1006900042EB06015EEA430E08BF20EAD37070BD4C
:1006A000C4F10C04C4F1200500FA04F320FA05F0AB
:1006B00001FA04F240EA020001F0004110EBD370AD
:1006C00041F100015EEA430E08BF20EAD37070BD1D
:1006D000C4F1200500FA05F24EEA020E20FA04F3F6
:1006E00001FA05F243EA020321FA04F001F00041A5
:1006F00021FA04F220EA020000EBD3705EEA430E16
:1007000008BF20EAD37070BD94F0000F0FD101F044
:100710000046400041EB010111F4801F08BF013C7D
:10072000F7D041EA060195F0000F18BF704703F0BB
:100730000046520043EB030313F4801F08BF013D42
:10074000F7D043EA0603704794EA0C0F0CEA1355FE
:1007500018BF95EA0C0F0CD050EA410618BF52EAB8
:100760004306D1D181EA030101F000414FF00000BE
:1007700070BD50EA410606BF1046194652EA4306CC
:1007800019D094EA0C0F02D150EA013613D195EA40
:100790000C0F05D152EA03361CBF104619460AD188
:1007A00081EA030101F0004141F0FE4141F4700192
:1007B0004FF0000070BD41F0FE4141F4780170BD82
:1007C00070B54FF0FF0C4CF4E06C1CEA11541DBFE7
:1007D0001CEA135594EA0C0F95EA0C0F00F0A7F8E9
:1007E000A4EB050481EA030E52EA03354FEA013116
:1007F00000F088804FEA03334FF0805545EA131329
:1008000043EA12634FEA022245EA111545EA1065F0
:100810004FEA00260EF000419D4208BF964244F187
:10082000FD0404F5407402D25B084FEA3202B61AA6
:1008300065EB03055B084FEA32024FF480104FF47A
:10084000002CB6EB020E75EB030E22BFB61A7546EE
:1008500040EA0C005B084FEA3202B6EB020E75EB81
:10086000030E22BFB61A754640EA5C005B084FEAE9
:100870003202B6EB020E75EB030E22BFB61A7546B6
:1008800040EA9C005B084FEA3202B6EB020E75EBC1
:10089000030E22BFB61A754640EADC0055EA060E82
:1008A00018D04FEA051545EA16754FEA06164FEAC5
:1008B000C30343EA52734FEAC2025FEA1C1CC0D171
:1008C00011F4801F0BD141EA00014FF000004FF0FE
:1008D000004CB6E711F4801F04BF01430020B4F1BF
:1008E000FD0C88BFBCF5E06F3FF6AFAEB5EB030C77
:1008F00004BFB6EB020C5FEA500C50F1000041EB74
:10090000045170BD0EF0004E4EEA113114EB5C0440
:10091000C2BFD4EB0C0541EA045170BD41F4801113
:100920004FF0000E013C90E645EA060E8DE60CEA1B
:10093000135594EA0C0F08BF95EA0C0F3FF43BAF38
:1009400094EA0C0F0AD150EA01347FF434AF95EAEF
:100950000C0F7FF425AF104619462CE795EA0C0FD3
:1009600006D152EA03353FF4FDAE1046194622E7A0
:1009700050EA410618BF52EA43067FF4C5AE50EA7A
:1009800041047FF40DAF52EA43057FF4EBAE12E76A
:100990004A0011D212F5001211D20DD56FF47873FE
:1009A000B3EB62520ED44FEAC12343F0004343EA53
:1009B000505323FA02F070474FF00000704750EA9E
:1009C000013002D14FF0FF3070474FF00000704708
:1009D00053B94AB9002908BF00281CBF4FF0FF31A6
:1009E0004FF0FF3000F07EB9ADF1080C6DE904CE98
:1009F00000F006F8DDF804E0DDE9022304B07047FA
:100A00002DE9F0478C460E460446089D002B50D138
:100A10008A4217466CD9B2FA82FEBEF1000F0BD0A3
:100A2000CEF1200420FA04F401FA0EF644EA060C92
:100A300002FA0EF700FA0EF44FEA1749220CBCFB3B
:100A4000F9F01FFA87F809FB10C642EA064600FBD8
:100A500008F3B34209D9F61900F1FF3280F0228180
:100A6000B34240F21F8102383E44F61AA2B2B6FBEE
:100A7000F9F309FB136642EA064403FB08F8A045B4
:100A800009D9E41903F1FF3280F00A81A04540F250
:100A90000781023B3C44C8EB040443EA00400021C8
:100AA000002D62D024FA0EF400232C606B60BDE8A8
:100AB000F0878B4207D9002D55D0002185E84100F1
:100AC0000846BDE8F087B3FA83F1002940F0908032
:100AD000B34202D3824200F2F880841A66EB030626
:100AE0000120B446002D40D085E81010BDE8F08705
:100AF00012B90127B7FBF2F7B7FA87FEBEF1000F74
:100B000035D1F31B4FEA17481FFA87FC0121B3FBCD
:100B1000F8F0220C08FB103642EA06460CFB00F304
:100B2000B34207D9F61900F1FF3202D2B34200F204
:100B3000CE801046F61AA2B2B6FBF8F308FB136695
:100B400042EA06440CFB03FCA44507D9E41903F16F
:100B5000FF3202D2A44500F2B5801346CCEB040468
:100B600043EA00409CE729462846BDE8F087CEF1DD
:100B7000200106FA0EF307FA0EF720FA01F94FEA00
:100B80001748CE4049EA0309B6FBF8FA4FEA194480
:100B900008FB1A661FFA87FC44EA06430AFB0CF2BC
:100BA0009A4200FA0EF40AD9DB190AF1FF3180F0FB
:100BB00087809A4240F28480AAF1020A3B449B1A41
:100BC0001FFA89F9B3FBF8F108FB113349EA034333
:100BD00001FB0CF69E4207D9DB1901F1FF326BD203
:100BE0009E4269D902393B449B1B41EA0A418EE788
:100BF000C1F1200E22FA0EF48B40234320FA0EF7A7
:100C000006FA01F44FEA134C26FA0EF63C43B6FB03
:100C1000FCF9270C0CFB19661FFA83F847EA064615
:100C200009FB08F7B74202FA01F200FA01FA08D903
:100C3000F61809F1FF3041D2B7423FD9A9F10209B4
:100C40001E44F61BA0B2B6FBFCF40CFB146640EA93
:100C5000064704FB08F8B84507D9FF1804F1FF3030
:100C600028D2B84526D9023C1F4444EA0940C8EBC3
:100C70000707A0FB02894F4544464E4614D329D0AE
:100C800065B3BAEB040367EB060707FA0EFECB4029
:100C9000CF404EEA030385E888000021BDE8F087D5
:100CA0001346F8E61046E0E6B8EB020469EB0306EB
:100CB0000138E5E70446D8E7114695E78146C0E7E5
:100CC0008A467CE7023B3C4448E708460AE702388C
:100CD0003E442FE7C245E7D33E46D1E72946BDE86B
:100CE000F08700BF704700BF000000000000000058
:100CF00001F0FF01102A2BDB10F0070F08D010F8CD
:100D0000013B013A8B422DD010F0070F42B3F6D1D0
:100D1000F0B441EA012141EA014122F007047FF0E9
:100D200000070023F0E80256083C85EA010586EA40
:100D3000010685FA47F5A3FA87F586FA47F6A5FA7C
:100D400087F68EB9EED1F0BC01F0FF0102F0070288
:100D500032B110F8013B013A83EA010313B1F8D133
:100D60000020704701387047002D06BF3546033814
:100D7000073815F0010F07D1013015F4807F02BF4D
:100D8000013015F4C03F0130F0BC0138704700BF9E
:100D900010B504460E4B18784FF47A73B3FBF0F39A
:100DA0000C4A1068B0FBF3F000F0E4FB58B90F2CCC
:100DB0000BD8002221464FF0FF3000F09BFB044B84
:100DC0005C60002010BD012010BD012010BD00BFDF
:100DD00000000020BC00002008B50B4B1A6842F44C
:100DE00000721A601A6842F480621A601A6842F44B
:100DF00080721A60032000F06BFB0020FFF7C8FF31
:100E000002F0A4FC002008BD003C0240034A136825
:100E1000034909780B441360704700BF600100204C
:100E200000000020014B1868704700BF60010020DF
:100E300038B50446FFF7F6FF0546B4F1FF3F02D090
:100E4000044B1B781C44FFF7EDFF401B8442FAD88B
:100E500038BD00BF00000020494B5A6822F44032E0
:100E60005A60596842680A435A600268536823F41A
:100E70008073536002685368016943EA0123536039
:100E80000268536823F040735360026851688368B6
:100E90000B4353600268936823F400639360026815
:100EA0009168C3680B439360826A364B9A4214D0B0
:100EB0000268936823F07063936002689168836AA4
:100EC0000B4393600268936823F040539360026879
:100ED0009168C36A0B43936009E00268936823F04A
:100EE000706393600268936823F0405393600268D4
:100EF000936823F00203936002689368017E43EADB
:100F00004103936090F820308BB10268536843F43A
:100F1000006353600268536823F4604353600168C0
:100F20004A68436A013B42EA43334B6004E002688B
:100F3000536823F4006353600268D36A23F4700398
:100F4000D3620168CA6AC369013B42EA0353CB62B8
:100F50000268936823F4007393600268936890F8C2
:100F6000301043EA412393600268936823F480635E
:100F7000936002689368416943EA812393607047F4
:100F8000002301400100000F30B310B50446036C8C
:100F90002BB902F051F80023636484F83C30236CD1
:100FA00013F0100F13D1236C23F4885323F00203A2
:100FB00043F0020323642046FFF74EFF00206064E5
:100FC000236C23F0030343F00103236400E00120BA
:100FD000002384F83C3010BD0120704782B000230C
:100FE000019390F83C30012B61D0012380F83C3014
:100FF00003689A6812F0010F13D19A6842F0010257
:101000009A60304B1B68304AA2FB03239B0C03EB16
:101010004303019302E0019B013B0193019B002BE1
:10102000F9D10268936813F0010F42D0036C23F4E6
:10103000E06323F0010343F480730364536813F403
:10104000806F05D0036C23F4405343F48053036452
:10105000036C13F4805F04D0436C23F006034364F5
:1010600001E000234364002380F83C306FF022034A
:101070001360164B5B6813F01F0F0AD103689A6860
:1010800012F0405F17D19A6842F080429A600020C7
:1010900016E003680E4A93420FD19A6812F0405F3F
:1010A0000DD19A6842F080429A60002008E0022048
:1010B00006E0002004E0002002E0002000E0002024
:1010C00002B07047BC00002083DE1B4300230140B8
:1010D0000020014090F83C30012B19D0012380F80A
:1010E0003C300268936823F00103936003689B68B7
:1010F00013F0010F07D1036C23F4885323F001038D
:1011000043F001030364002380F83C301846704725
:101110000220704770B503689A6812F4806F0CD093
:101120009B6813F4807F08D0036C43F020030364B2
:10113000002380F83C30012070BD0D460446FFF7C7
:1011400071FE064611E0B5F1FF3F0ED025B1FFF765
:1011500069FE801B854208D2236C43F0040323649C
:10116000002384F83C30032070BD23681A6812F015
:10117000020FE8D06FF012021A60236C43F4007380
:10118000236423689A6812F0405F17D1227EBAB9AF
:10119000DA6A12F4700F03D09B6813F4806F11D1D8
:1011A000236C23F480732364236C13F4805F0BD1CE
:1011B000236C43F001032364002070BD002070BD48
:1011C000002070BD002070BD002070BD0368D86C89
:1011D000704700BF704700BF704700BF704700BF37
:1011E00038B5044602681168536811F0020F2FD019
:1011F00003F0200363B3036C13F0100F03D1036CEF
:1012000043F400730364936813F0405F19D1237EA5
:10121000BBB9D36A13F4700F03D0936813F4806FD3
:101220000FD1536823F020035360236C23F48073A1
:101230002364236C13F4805F03D1236C43F0010318
:1012400023642046FFF7C6FF23686FF012021A607E
:10125000236819685A6802F0800211F0040F36D032
:10126000002A34D0226C12F0100F03D1226C42F409
:10127000005222649A6812F4401F21D19A6B12F432
:10128000401F03D09A6812F4806F19D15A6812F483
:10129000806F15D19A6812F0405F11D1227E7AB921
:1012A0005A6822F080025A60236C23F4805323642E
:1012B000236C13F4807F03D1236C43F00103236478
:1012C000204600F003F923686FF00C021A602268D0
:1012D0001168536803F0400311F0010F0FD073B190
:1012E000136813F0010F0AD0236C43F48033236496
:1012F0002046FFF771FF23686FF001021A60226831
:101300001168536803F0806311F0200F0CD05BB1BB
:10131000636C43F0020363646FF0200515602046A0
:10132000FFF75CFF23681D6038BD00BF30B482B09A
:101330000023019390F83C30012B00F0B88001238A
:1013400080F83C300B68092B17D90568EA689BB216
:1013500003EB43031E3B072404FA03F322EA0303CF
:10136000EB600468E5688A680B8803EB43031E3B67
:1013700002FA03F32B43E36013E005682A699BB28A
:1013800003EB4303072404FA03F322EA03032B616C
:10139000046825698B680A8802EB420293402B435C
:1013A00023614B68062B16D805686A6B03EB830331
:1013B000053B1F2404FA03F322EA03036B6304686A
:1013C000656B4B6803EB8303053B0A8802FA03F362
:1013D0002B4363632EE00C2B16D805682A6B03EBB6
:1013E0008303233B1F2404FA03F322EA03032B6342
:1013F0000468256B4B6803EB8303233B0A8802FADE
:1014000003F32B43236315E00568EA6A03EB8303C8
:10141000413B1F2404FA03F322EA0303EB6204684E
:10142000E56A4B6803EB8303413B0A8802FA03F346
:101430002B43E3620268204B9A420BD10B68122BBC
:1014400008D11E4B5A6822F400025A605A6842F4CE
:1014500080025A600268184B9A4223D10B68184ADE
:10146000934201D0112B1DD1144B5A6822F48002F3
:101470005A605A6842F400025A600A68104B9A4255
:1014800010D1104B1B68104AA2FB03239B0C03EBEB
:1014900083035A00019202E0019B013B0193019BEF
:1014A000002BF9D1002380F83C30184600E00220E0
:1014B00002B030BC704700BF002001400023014053
:1014C00012000010BC00002083DE1B43704700BFE9
:1014D000074AD36823F4E0631B041B0C000200F4EA
:1014E000E060184340F0BF6040F40030D0607047C7
:1014F00000ED00E030B4164BDB68C3F30223C3F108
:101500000704042C28BF04241D1D062D01D9DD1E4F
:1015100000E00025012303FA04F4013C2140A94026
:10152000AB40013B1A400A43002808DB1201D2B24B
:1015300000F1604000F5614080F8002305E000F014
:101540000F001201D2B2034B1A5430BC704700BFD7
:1015500000ED00E014ED00E0002808DB420900F097
:101560001F00012303FA00F0014B43F822007047EB
:1015700000E100E00138B0F1807F0AD2064B5860EC
:10158000F021064A82F823100020986007221A6092
:1015900070470120704700BF10E000E000ED00E060
:1015A00030B405682C6824F480242C6004686360DF
:1015B0008368402B04D103689A600368D96003E014
:1015C000036899600368DA6030BC70470268D3B280
:1015D000103B0B49A1FB03131B090A49C95CC165F8
:1015E000032B06D922F47F7222F0030204328265B3
:1015F00004E022F47F7222F003028265806D70475E
:10160000ABAAAAAAF8480008836A826982B9012BAA
:1016100008D00BB1022B2ED1C36A13F0807F2CD1DE
:1016200000207047C36AB3F1C07F28D00020704704
:10163000B2F5005F13D1032B03D8DFE803F02204D7
:10164000220A00207047C36A13F0807F1BD100205C
:101650007047C36AB3F1C07F17D000207047022BD8
:1016600015D9032B01D000207047C36A13F0807F87
:101670000FD10020704700207047012070470120E3
:1016800070470120704701207047012070470120FA
:1016900070470120704700BF70B50446FFF7C2FBDA
:1016A000002C5CD00546002384F83430022384F8F3
:1016B00035302268136823F0010313600AE0FFF756
:1016C000B1FB401B052805D920236365032084F85E
:1016D000350070BD23681A6812F0010FEFD11A6847
:1016E000204810406168A2681143E26811432269F2
:1016F000114362691143A2691143E2690A43216AF5
:10170000114340EA0102616A042903D1E06A216BB6
:1017100001430A431A602668756925F00705636A64
:101720001D43042B0DD1A36A1D43E36A4BB1204630
:10173000FFF76AFF28B140236365012084F8350074
:1017400070BD75612046FFF741FFE26D3F23934076
:10175000836000206065012384F8353070BD01206E
:1017600070BD00BF3F8010F038B5856D90F83440F3
:10177000012C2CD0012480F8344090F83540E4B29C
:10178000012C1FD10446022084F83500002060653A
:101790002046FFF705FFE26D3F239340AB602268D0
:1017A000136843F016031360236C23B12268136897
:1017B00043F0080313602268136843F001031360C9
:1017C000002038BD002380F83430022038BD0220CC
:1017D00038BD00BF90F83530DBB2022B03D0802338
:1017E000436501207047052380F83530026813688F
:1017F00023F0010313600020704700BFF0B583B0F1
:10180000044600230193714B1B68714DA5FB033502
:10181000AD0A876D3E68C26D082393401E4210D00A
:1018200003681A6812F0040F0BD01A6822F0040241
:101830001A60C26D08239340BB60436D43F00103FF
:101840004365E26D012393401E4209D0226852692C
:1018500012F0800F04D0BB60636D43F00203636538
:10186000E26D042393401E4209D02268126812F0F0
:10187000020F04D0BB60636D43F004036365E26D47
:10188000102393401E4224D02268126812F0080FE1
:101890001FD0BB6023681A6812F4802F0DD01B681C
:1018A00013F4002F04D1236C9BB12046984710E01D
:1018B000A36C73B1204698470BE01A6812F4807F3E
:1018C00003D11A6822F008021A60236C0BB120467B
:1018D0009847E26D202393401E4252D0226812683E
:1018E00012F0100F4DD0BB6094F83530DBB2052BF1
:1018F00022D12268136823F016031360226853690B
:1019000023F080035361236C0BB9A36C23B12268CD
:10191000136823F008031360E26D3F239340BB601C
:10192000002384F83430012384F83530236D002BF4
:1019300049D02046984746E023681A6812F4802F61
:101940000DD01B6813F4002F04D1636CCBB120467B
:10195000984716E0E36BA3B12046984711E01A6858
:1019600012F4807F09D11A6822F010021A60002355
:1019700084F83430012384F83530E36B0BB1204612
:101980009847636DFBB1636D13F0010F17D005230A
:1019900084F835302268136823F001031360019B3B
:1019A000013301939D4204D323681B6813F0010F98
:1019B000F5D1002384F83430012384F83530E36C0A
:1019C0000BB12046984703B0F0BD00BFBC0000201B
:1019D000B5814E1B2DE9F04182B00023C1E0012208
:1019E0009A400C6802EA0405AA4240F0B9804C68AB
:1019F000661E012E03D9112C01D0122C15D1876837
:101A00004FEA430E032606FA0EF627EA0606CC68CE
:101A100004FA0EF434438460446824EA02024C68F9
:101A2000C4F300149C4022434260C6685F00032454
:101A3000BC40E44306EA04028E68BE401643C6601A
:101A40004A68022A01D0122A13D1DE08083650F85B
:101A5000268003F007024FEA820E0F2202FA0EF2EE
:101A600028EA020C0A6902FA0EF24CEA020240F875
:101A70002620066826404A6802F0030404FA07F2AA
:101A8000324302604A6812F0805F69D000220192FE
:101A9000374A546C44F480445464526C02F48042DB
:101AA0000192019A9E08B41C324A52F8244003F075
:101AB000030292000F27974024EA07072E4CA0420A
:101AC00011D004F58064A0420FD004F58064A042D8
:101AD0000DD004F58064A0420BD004F58064A042D0
:101AE00009D1042408E0002406E0012404E00224D3
:101AF00002E0032400E0072404FA02F23A4302362B
:101B00001C4C44F826201D4A1468EA4304EA0206E5
:101B10004F6817F4803F01D045EA0406174C266051
:101B2000646802EA04064F6817F4003F01D045EAF2
:101B30000406124C6660A46802EA04064F6817F4B3
:101B4000801F01D045EA04060C4CA660E4682240E0
:101B50004E6816F4001F01D045EA0402074CE2600B
:101B600001330F2B7FF63BAF02B0BDE8F08100BF21
:101B7000003802400038014000000240003C0140B3
:101B80000369194201D0012070470020704700BF4F
:101B90000AB181617047090481617047436931EA84
:101BA000030302D10904816170478161704700BF5E
:101BB00008B5044B5B69034203D0024B586101F046
:101BC0007BFC08BD003C0140002800F0D78170B5C7
:101BD00082B00446036813F0010F5AD0A04B9B68F3
:101BE00003F00C03042B0AD09D4B9B6803F00C03FD
:101BF000082B0DD19A4B5B6813F4800F08D0984BDB
:101C00001B6813F4003F44D06368002B41D1B7E157
:101C10006368B3F5803F05D1914A136843F480337C
:101C2000136015E0B3F5A02F09D18D4B1A6842F46B
:101C300080221A601A6842F480321A6008E0884BE9
:101C40001A6822F480321A601A6822F480221A601C
:101C500063687BB1FFF7E6F8054605E0FFF7E2F8B9
:101C6000401B642800F28E817D4B1B6813F4003FFB
:101C7000F4D00EE0FFF7D6F8054605E0FFF7D2F8FE
:101C8000401B642800F28081754B1B6813F4003FF1
:101C9000F4D1236813F0020F50D0714B9B6813F0FE
:101CA0000C0F0AD06E4B9B6803F00C03082B16D167
:101CB0006B4B5B6813F4800F11D1694B1B6813F0F9
:101CC000020F03D0E368012B40F06081644A13687F
:101CD00023F0F803216943EAC10313602EE0E368AF
:101CE000D3B101225F4B1A60FFF79CF8054605E06F
:101CF000FFF798F8401B022800F24A81584B1B68F6
:101D000013F0020FF4D0564A136823F0F803216948
:101D100043EAC103136011E00022524B1A60FFF73F
:101D200081F8054605E0FFF77DF8401B022800F228
:101D300031814B4B1B6813F0020FF4D1236813F071
:101D4000080F26D0636993B10122474B1A60FFF751
:101D500069F8054605E0FFF765F8401B022800F228
:101D60001B813F4B5B6F13F0020FF4D011E0002298
:101D70003D4B1A60FFF756F8054605E0FFF752F8AD
:101D8000401B022800F20A81354B5B6F13F0020FF3
:101D9000F4D1236813F0040F7DD0314B1B6C13F08A
:101DA000805F0DD1002301932D4B1A6C42F08052BD
:101DB0001A641B6C03F080530193019B012500E022
:101DC00000252A4B1B6813F4807F13D1274A136820
:101DD00043F480731360FFF725F8064605E0FFF72C
:101DE00021F8801B022800F2DB80204B1B6813F4D3
:101DF000807FF4D0A368012B05D1194A136F43F0FB
:101E00000103136714E0052B09D1154B1A6F42F03B
:101E100004021A671A6F42F001021A6708E0104BB9
:101E20001A6F22F001021A671A6F22F004021A6771
:101E3000A3688BB1FEF7F6FF064607E0FEF7F2FF58
:101E4000801B41F28833984200F2AC80044B1B6F38
:101E500013F0020FF2D018E0FEF7E4FF06460FE0A1
:101E60000038024000004742800E474200700040A8
:101E7000FEF7D8FF801B41F28833984200F294802D
:101E8000554B1B6F13F0020FF2D125B1524A136C60
:101E900023F080531364A369002B00F087804E4A1F
:101EA000926802F00C02082A48D0022B33D100229B
:101EB0004A4B1A60FEF7B6FF054604E0FEF7B2FF94
:101EC000401B022874D8444B1B6813F0007FF5D1E7
:101ED000E269236A1343626A43EA8213A26A5208E0
:101EE000013A43EA0243E26A43EA02633A4A536030
:101EF00001223A4B1A60FEF795FF044604E0FEF714
:101F000091FF001B022855D8334B1B6813F0007F4C
:101F1000F5D000205DE00022304B1A60FEF782FF12
:101F2000044604E0FEF77EFF001B022844D82A4B3B
:101F30001B6813F0007FF5D100204AE0012B3DD053
:101F4000254B5B6803F48001E269914238D103F0CC
:101F50003F02216A8A4235D1616A47F6C0721A404F
:101F60008A4231D103F44032A16A8A422ED103F071
:101F70007063E26A93422BD001202AE0012070476F
:101F8000012026E0032024E0032022E0012020E0BD
:101F900003201EE003201CE003201AE0032018E0C9
:101FA000032016E0032014E0032012E0002010E0DC
:101FB00003200EE003200CE003200AE0012008E0EB
:101FC000012006E0012004E0012002E0012000E001
:101FD000002002B070BD00BF0038024060004742E0
:101FE00038B52F4B9B6803F00C03042B55D0082BFE
:101FF00001D02C4838BD2A4B5A6802F03F025B687A
:1020000013F4800F20D0264B5B68C3F38813DC00E9
:102010000025690141EAD4616001041B61EB0505FB
:10202000A90141EA9461A001001B61EB0501C01800
:1020300041F100014B0243EAD053440220461946C5
:102040000023FEF7C5FC1FE0154B5B68C3F3881344
:10205000DC000025690141EAD4616001041B61EBE9
:102060000505A90141EA9461A001001B61EB05018E
:10207000C01841F100018B0243EA905384022046CC
:1020800019460023FEF7A4FC054B5B68C3F301432C
:1020900001335B00B0FBF3F038BD034838BD00BF2F
:1020A000003802400024F40000127A00002800F0FA
:1020B000988070B50446524B1B6803F00F038B42A7
:1020C00008D2CBB24E4A1370136803F00F03994243
:1020D00040F08980236813F0020F17D013F0040F2B
:1020E00004D0484A936843F4E0539360236813F0A4
:1020F000080F04D0434A936843F460439360414817
:10210000836823F0F002A368134383600D462368BD
:1021100013F0010F2FD06268012A05D1394B1B68DB
:1021200013F4003F0ED160E0931E012B05D8354B10
:102130001B6813F0007F05D159E0324B1B6813F088
:10214000020F56D02F498B6823F0030313438B6093
:10215000FEF768FE064606E0FEF764FE801B41F2CD
:102160008833984247D8274B9B6803F00C0362687A
:10217000B3EB820FF0D1224B1B6803F00F039D429B
:1021800007D2EAB21E4B1A701B6803F00F039D4280
:1021900033D1236813F0040F06D01A498B6823F457
:1021A000E052E36813438B60236813F0080F07D0F5
:1021B000144A936823F46043216943EAC10393609E
:1021C000FFF70EFF0F4B9B68C3F303130E4AD35C5C
:1021D000D8400E4B18600E4B1868FEF7D9FD002052
:1021E00070BD01207047012070BD012070BD01202D
:1021F00070BD012070BD032070BD012070BD00BF07
:10220000003C02400038024000490008BC000020A9
:1022100004000020014B1868704700BFBC0000207C
:1022200008B5FFF7F7FF044B9B68C3F38223034A0B
:10223000D35CD84008BD00BF0038024010490008F8
:1022400008B5FFF7E7FF044B9B68C3F34233034A2B
:10225000D35CD84008BD00BF0038024010490008D8
:1022600070B4036A23F001030362036A466882695B
:1022700022F073020C6842EA040523F002028B6824
:1022800013430C4CA04205D123F00803CA68134342
:1022900023F00403074CA04205D126F440764A6996
:1022A00032438E691643466085614A684263036221
:1022B00070BC70470000014030B4036A23F480739F
:1022C0000362036A4568C26922F073020C68224304
:1022D00023F400738C6843EA04230E4CA04206D119
:1022E00023F40063CC6843EA042323F48063094C9D
:1022F000A04207D125F440554C6945EA04158C6984
:1023000045EA04154560C2614A68C263036230BC95
:10231000704700BF0000014030B4036A23F48053CB
:102320000362036A4468C26922F4E6420D6842EA25
:10233000052223F400538D6843EA0533074DA84274
:1023400004D124F480444D6944EA85144460C26198
:102350004A680264036230BC704700BF000001405D
:1023600010B4036A046A24F001040462846924F04E
:10237000F00444EA021223F00A0319438261016265
:102380005DF8044B704700BF10B4036A23F01003DC
:1023900003628469036A24F4704444EA023223F03D
:1023A000A00343EA0111826101625DF8044B7047AA
:1023B000836823F07003194341F00701816070477F
:1023C0000268D36843F00103D3600268936803F0A6
:1023D0000703062B03D0136843F0010313600020AA
:1023E000704700BF704700BF704700BF704700BF15
:1023F000704700BF704700BF10B5044603681A69F4
:1024000012F0020F17D0DA6812F0020F13D06FF03B
:1024100002021A610123037703689B6913F0030F1B
:1024200002D0FFF7E3FF04E0FFF7DEFF2046FFF7EF
:10243000DFFF0023237723681A6912F0040F19D0F5
:10244000DA6812F0040F15D06FF004021A6102234B
:10245000237723689B6913F4407F03D02046FFF75E
:10246000C5FF05E02046FFF7BFFF2046FFF7C0FF8E
:102470000023237723681A6912F0080F19D0DA684D
:1024800012F0080F15D06FF008021A6104232377A9
:102490002368DB6913F0030F03D02046FFF7A6FF84
:1024A00005E02046FFF7A0FF2046FFF7A1FF00232D
:1024B000237723681A6912F0100F19D0DA6812F026
:1024C000100F15D06FF010021A61082323772368CC
:1024D000DB6913F4407F03D02046FFF787FF05E058
:1024E0002046FFF781FF2046FFF782FF0023237776
:1024F00023681A6912F0010F09D0DA6812F0010F8F
:1025000005D06FF001021A61204601F073F82368CC
:102510001A6912F0800F09D0DA6812F0800F05D026
:102520006FF080021A61204600F05AFA23681A6997
:1025300012F0400F09D0DA6812F0400F05D06FF0AA
:1025400040021A612046FFF755FF23681A6912F00E
:10255000200F09D0DA6812F0200F05D06FF02002AA
:102560001A61204600F03AFA10BD00BF0368244A01
:1025700090420ED0B0F1804F0BD0A2F57C42904239
:1025800007D002F58062904203D002F5806290424B
:1025900003D123F070034A681343194A90421AD0BA
:1025A000B0F1804F17D0A2F57C42904213D002F5D3
:1025B000806290420FD002F5806290420BD002F50B
:1025C0009A32904207D002F58062904203D002F521
:1025D0008062904203D123F44073CA68134323F00E
:1025E00080034A69134303608B68C3620B6883628C
:1025F000034B984201D10B69036301234361704788
:1026000000000140B8B110B5044690F83D3013F019
:10261000FF0F04D1002380F83C3001F0BDF9022304
:1026200084F83D30211D2068FFF7A0FF012384F8C6
:102630003D30002010BD0120704700BFB8B110B57B
:10264000044690F83D3013F0FF0F04D1002380F8CA
:102650003C30FFF7C7FE022384F83D30211D20687F
:10266000FFF784FF012384F83D30002010BD0120D6
:10267000704700BF30B4036A23F010030362036A9B
:102680004468826922F4E6420D6842EA052223F09A
:1026900020038D6843EA05130D4DA84206D123F0AF
:1026A0008003CD6843EA051323F04003084DA84298
:1026B00007D124F440644D6944EA85048D6944EAF5
:1026C0008504446082614A688263036230BC70475B
:1026D0000000014038B590F83C30012B66D00D4623
:1026E0000446012380F83C30022380F83D300C2A58
:1026F00055D8DFE802F0075454541A5454542E5459
:10270000545441000068FFF7ABFD2268936943F021
:10271000080393612268936923F00403936122689C
:1027200091692B690B43936139E00068FFF7A2FFC1
:102730002268936943F4006393612268936923F4E8
:102740008063936122689369296943EA0123936155
:1027500025E00068FFF7B0FD2268D36943F0080365
:10276000D3612268D36923F00403D3612268D1695D
:102770002B690B43D36112E00068FFF7CDFD22689F
:10278000D36943F40063D3612268D36923F480637F
:10279000D3612268D369296943EA0123D361012304
:1027A00084F83D30002084F83C0038BD022038BD5C
:1027B00010B4846824F47F4442EA0323194344EAB2
:1027C000010383605DF8044B704700BF90F83C3014
:1027D000012B6AD010B50446012380F83C30022357
:1027E00080F83D300268936823F47F4323F0770339
:1027F00093600B68402B43D00AD8102B4AD002D8E4
:10280000002B47D04AE0202B44D0302B42D045E06B
:10281000602B2BD002D8502B1ED03FE0702B03D062
:10282000B3F5005F0CD039E0CB684A68896800686E
:10283000FFF7BEFF2268936843F0770393602DE0B3
:10284000CB684A6889680068FFF7B2FF226893681E
:1028500043F48043936021E0CA6849680068FFF749
:102860007FFD50212068FFF7A3FD17E0CA68496883
:102870000068FFF789FD60212068FFF799FD0DE0F2
:10288000CA6849680068FFF76BFD40212068FFF7C0
:102890008FFD03E019462068FFF78AFD012384F8C5
:1028A0003D30002084F83C0010BD0220704700BF7E
:1028B00010B401F01F01012303FA01F4036A23EAB3
:1028C00004030362036A8A401A4302625DF8044B00
:1028D000704700BF10B5044601220068FFF7E8FF0B
:1028E0002368094A934203D15A6C42F400425A6465
:1028F0002268936803F00703062B03D0136843F0A4
:1029000001031360002010BD0000014090F83C302E
:10291000012B32D030B4012380F83C30022380F800
:102920003D3003685A689D6822F070040A682243AB
:102930005A600368134A934212D0B3F1804F0FD00C
:10294000A2F57C4293420BD002F58062934207D0FD
:1029500002F58062934203D002F59A32934204D189
:1029600025F080054A6815439D60012380F83D30BD
:10297000002380F83C30184601E00220704730BC4C
:10298000704700BF0000014090F83C30012B22D07E
:10299000012380F83C30CB6823F440728B681343EA
:1029A00023F480624B68134323F400620B681343E3
:1029B00023F480520B69134323F400524B691343F1
:1029C00023F48043CA69134302685364002380F8E8
:1029D0003C30184670470220704700BF704700BF68
:1029E000704700BF0268D36823F0C003D360202380
:1029F00080F83930704700BF0268D36823F49073C1
:102A0000D3600268536923F001035361202380F8E7
:102A10003A30704790F83930DBB2212B2BD18368E4
:102A2000B3F5805F0FD1036A02681B88C3F3080304
:102A3000536003691BB9036A0233036209E0036A46
:102A40000133036205E00268036A591C01621B78C6
:102A50005360C38C9BB2013B9BB2C3846BB90268C9
:102A6000D36823F08003D3600268D36843F0400347
:102A7000D36000207047022070470020704700BFDD
:102A8000F8B5044601680B6923F44052C368134348
:102A90000B6181680369194343691943C369194389
:102AA0000068C26822F4164323F00C030B43C36092
:102AB00021684B6923F44072A36913434B61E369B6
:102AC000B3F5004F61D123685F4A934203D002F50A
:102AD000806293422CD1FFF7B3FB256800210618D2
:102AE00041EB010736184F41FB0043EA5673F200F1
:102AF00016461F466268002392185B41801979418F
:102B0000FDF766FF514BA3FB00125109642202FB43
:102B10001102D2003232A3FB02235B095A0002F4F5
:102B2000F87202EB011203F007031344AB60F8BD27
:102B3000FFF776FB25680021061841EB01073618E0
:102B40004F41FB0043EA5673F20016461F46626887
:102B5000002392185B4180197941FDF739FF3B4B07
:102B6000A3FB00125109642202FB1102D20032328F
:102B7000A3FB02235B095A0002F4F87202EB011274
:102B800003F007031344AB60F8BD23682E4A934259
:102B900003D002F5806293422AD1FFF751FB2568EA
:102BA0000021061841EB010736184F41FB0043EAAC
:102BB0005673F20016461F4663689A009B0F8019F1
:102BC0007941FDF705FF214BA3FB00214909642250
:102BD00002FB110212013232A3FB02235B0903F054
:102BE000F00202EB011103F00F030B44AB60F8BDE0
:102BF000FFF716FB25680021061841EB0107361880
:102C00004F41FB0043EA5673F20016461F466368C5
:102C10009A009B0F80197941FDF7DAFE0B4BA3FB5D
:102C200000214909642202FB110212013232A3FB86
:102C300002235B0903F0F00202EB011103F00F0322
:102C40000B44AB60F8BD00BF001001401F85EB5185
:102C500068B310B5044690F8393013F0FF0F04D173
:102C6000002380F8383001F095F8242384F83930B7
:102C70002268D36823F40053D3602046FFF700FF97
:102C80002268136923F4904313612268536923F087
:102C90002A0353612268D36843F40053D3600020B1
:102CA000E063202384F8393084F83A3010BD0120E5
:102CB000704700BF38B590F83940E4B2202C31D1CC
:102CC000002931D0002A31D090F83830012B2FD094
:102CD00013460446012280F8382001628384C384AD
:102CE0000025C563212280F83920026B1148D0638A
:102CF000226B11481064226B1048D064226B15655A
:102D000022680432206BFEF72FFD23686FF040022B
:102D10001A6084F838502268536943F08003536185
:102D2000284638BD022038BD012038BD012038BDFD
:102D3000022038BD452D0008952D0008492E0008B9
:102D4000704700BF08B5836B0268126812F4807F79
:102D50000CD10022DA8419684A6922F080024A61A3
:102D60001A68D36843F04003D36008BD1846FFF7E4
:102D7000E7FF08BD08B50168CB6823F04003CB60CE
:102D8000202380F83930FFF7DBFF002008BD00BFAB
:102D9000704700BF08B5806BFFF7FAFF08BD00BFA2
:102DA000704700BF08B590F83A30DBB2222B44D10F
:102DB0008368B3F5805F13D1826A036943B90368FE
:102DC0005B68C3F308031380836A0233836218E0ED
:102DD00003685B68DBB21380836A0133836210E0AF
:102DE000036933B9836A5A1C8262026852681A7096
:102DF00007E0826A531C836203685B6803F07F0309
:102E00001370C38D9BB2013B9BB2C385BBB90268F3
:102E1000D36823F02003D3600268D36823F480735F
:102E2000D3600268536923F001035361202380F8C3
:102E30003A30FFF7B5FF002008BD022008BD002092
:102E400008BD00BF704700BF10B5846B23685B6985
:102E500003F0800294F83930DBB2212B05D122B186
:102E60000023E3842046FFF7BDFD23685B6903F080
:102E7000400294F83A30DBB2222B05D122B1002374
:102E8000E3852046FFF7B8FDE36B43F01003E363EF
:102E90002046FFF7D7FF10BD10B50446026813683F
:102EA000D168526913F00F0009D113F0200F06D03A
:102EB00011F0200F03D02046FFF774FF10BD00284B
:102EC00065D012F0010202D111F4907F5FD013F0AF
:102ED000010F06D011F4807F03D0E06B40F00100B9
:102EE000E06313F0040F04D01AB1E06B40F002006D
:102EF000E06313F0020F04D01AB1E06B40F004005D
:102F0000E06313F0080F07D011F0200F00D11AB1C1
:102F1000E26B42F00802E263E26B002A4AD013F04F
:102F2000200F05D011F0200F02D02046FFF73AFF06
:102F300023685B6903F04003E26B12F0080F00D1D5
:102F4000FBB12046FFF758FD23685A6912F0400F85
:102F500013D05A6922F040025A61636B4BB1164A92
:102F60001A65606BFEF736FC20B3606B036D984703
:102F700010BD2046FFF766FF10BD2046FFF762FF39
:102F800010BD2046FFF75EFF0023E36310BD13F082
:102F9000800F06D011F0800F03D02046FFF73AFDD6
:102FA00010BD13F0400F05D011F0400F02D02046A5
:102FB000FFF7E0FE10BD00BFBD2F000808B5806B15
:102FC0000023C385C384FFF73DFF08BD00B585B06E
:102FD000002300930193029303931448144A026060
:102FE0004FF480324260836003610122027680F8F0
:102FF0002030C3620F498162C360C26180F8303003
:103000004261FDF7C1FF08B100F09EFB0E23009363
:10301000012301930023029369460448FEF786F9D1
:1030200008B100F091FB05B05DF804FB64010020DD
:10303000002001400100000F10B588B00023039369
:103040000493059306930793026803F1804303F505
:1030500090339A4226D10024019403F58C335A6CA4
:1030600042F480725A645A6C02F480720192019A9E
:1030700002941A6B42F004021A631B6B03F0040300
:103080000293029B102303930323049303A906488E
:10309000FEF7A0FC224621461220FEF72BFA122052
:1030A000FEF75AFA08B010BD0008024000B583B020
:1030B00000210191094B1A6B42F400121A631B6B39
:1030C00003F400130193019B0A461120FEF712FA44
:1030D0001120FEF741FA03B05DF804FB003802400E
:1030E0002DE9F0438BB000240594069407940894CE
:1030F00009940194534B1A6B42F004021A631A6B41
:1031000002F004020192019A02941A6B42F08002CA
:103110001A631A6B02F080020292029A03941A6BED
:1031200042F001021A631A6B02F001020392039A41
:1031300004941A6B42F002021A631B6B03F0020341
:103140000493049B404F2246A0213846FEF720FD01
:103150003E4D224620212846FEF71AFD4FF400532B
:1031600005933B4B0693079405A92846FEF732FCCE
:1031700040F24F330593374E06964FF00208CDF8D4
:103180001C8005A92846FEF725FCA02305934FF0D7
:103190000109CDF818900794089405A93846FEF760
:1031A00019FC20270597CDF818900794089405A9D5
:1031B0002846FEF70FFC4FF4004305930696CDF822
:1031C0001C80A5F5806505A92846FEF703FC059738
:1031D0000696079405A92846FEF7FCFB22462146E1
:1031E0000620FEF787F90620FEF7B6F922462146AB
:1031F0000720FEF77FF90720FEF7AEF922462146A9
:103200000820FEF777F90820FEF7A6F922462146A6
:103210000920FEF76FF90920FEF79EF922462146A4
:103220001720FEF767F91720FEF796F92246214688
:103230002820FEF75FF92820FEF78EF90BB0BDE8D5
:10324000F08300BF00380240000002400008024046
:103250000000211000001110024BB3FBF0F080B20F
:10326000704700BF40420F00C862704770B50C46FF
:103270001646FFF7F1FF05463146FFF7F5FF2468D4
:103280002846FDF70DF90022034BFDF76FF9FDF716
:103290007FFB606370BD00BF0000E03F08B5012206
:1032A00080210248FEF774FC08BD00BF0000024008
:1032B00008B5002280210248FEF76AFC08BD00BF65
:1032C00000000240F8B504462D4A2E492E4B33F833
:1032D0001000FFF7CBFFFFF7E1FFC820FDF7A8FDC7
:1032E000FFF7E6FFC820FDF7A3FDA4F12C03DBB236
:1032F000022B07D0042B07D0092B07D00B2B07D0AC
:10330000042306E0032304E0032302E0032300E098
:10331000032323441C4D1A4F1A4E3A46314635F8C2
:103320001300FFF7A3FFFFF7B9FFC820FDF780FDEB
:10333000FFF7BEFFC820FDF77BFDE31D3A4631468F
:1033400035F81300FFF792FFFFF7A8FFC820FDF73D
:103350006FFDFFF7ADFFC820FDF76AFD0C343A465C
:10336000314635F81400FFF781FFFFF797FFC820BB
:10337000FDF75EFDFFF79CFFC820FDF759FDF8BD86
:1033800000040040480200200800002030B595B03D
:103390003022002108A800F0AFFD0024039404941B
:1033A00005940694079401941A4B1A6C42F08052CB
:1033B0001A641B6C03F080530193019B0294164B1B
:1033C0001A6842F440421A601B6803F440430293B7
:1033D000029B0225089501230B9310230C930E9555
:1033E0000F9410934FF4A873119304231293139323
:1033F00008A8FEF7E9FB0F230393049505944FF407
:10340000805306930794294603A8FEF74FFE15B094
:1034100030BD00BF003802400070004008B5FDF725
:10342000DBFCFFF7B3FFFFF75BFEFFF73FFE00F0AB
:1034300097FC00F0EDFB00F041FAFFF7C7FD00F04C
:1034400073FA00F079FB00F037FC144C00212046A1
:10345000FFF740FA00211248FFF73CFA1148FEF747
:10346000AFFF1148FEF7ACFF104B93F8B200104AC3
:10347000214633F81000FFF7F9FE002000F0FCFDB4
:1034800000F042FD0B4B1B782BB1084B93F8B200B8
:10349000FFF718FFF6E7FFF70BFFF3E748020020FE
:1034A00008020020C8020020C801002008000020F7
:1034B000000400404001002010B5B0F5005F09D1C4
:1034C00020214748FEF76AFB464A137883F0010340
:1034D000137010BD0446B0F5004F15D14FF40041F4
:1034E0004148FEF74DFB01280ED1FDF79BFC3D4BFB
:1034F0005B68C31AC82B04D93A4A137A83F00103D4
:103500001372384B586010BD402C0AD14021374807
:10351000FEF736FB012804D12C22354B83F8B2206C
:1035200010BD202C0AD120212F48FEF729FB0128AD
:1035300004D12E222E4B83F8B22010BDB4F5807F2B
:103540000BD14FF480712948FEF71AFB012804D1F2
:103550003022274B83F8B22010BDB4F5007F0BD189
:103560004FF400712148FEF70BFB012804D13122F2
:103570001F4B83F8B22010BD082C0AD108211B482C
:10358000FEF7FEFA012804D13322194B83F8B2204A
:1035900010BD042C0AD104211448FEF7F1FA0128C9
:1035A00004D13522124B83F8B22010BD022C0AD16F
:1035B00002210E48FEF7E4FA012804D137220C4B11
:1035C00083F8B22010BD012C09D101210748FEF774
:1035D000D7FA012803D13822054B83F8B22010BD59
:1035E00000000240400100200004024000080240A8
:1035F0000800002030B587B004460368B3F1804F5F
:1036000040D1434B1B7833B300F0A6FC414D85FB02
:103610000035C317C3EB650505EB8505451B3E4B20
:1036200093F8B2303D4A1821684600F0CFFCEDB265
:10363000013506AB1D447E2305F8183C384D69461C
:10364000284600F0F5FC82B2364B1A8029463648EF
:10365000FFF730FB16E0304B93F8B2302F4A1821B9
:10366000684600F0B3FC78238DF803302C4D694692
:10367000284600F0DDFC82B22A4B1A8029462A48EF
:10368000FFF718FB2268294B9A423ED1284C20466E
:10369000FDF7A4FC64212046FDF73CFD2046FDF724
:1036A00095FD07EE900AF8EE676A9FED227AC6EE66
:1036B000877AB7EE007AF4EE477AF1EE10FA01D18C
:1036C000DFED1D7AB2EE0A7A67EE877AFCEEE77AD2
:1036D00017EE903A2C330E4CE3601548FDF7FAFCD8
:1036E000E068164A16490C4B33F81000FFF7BEFD90
:1036F000237A2BB1012220211248FEF749FA04E077
:10370000002220210F48FEF743FA07B030BD00BF6A
:10371000400100206766666608000020184900081E
:10372000AC010020C4010020680300200008004014
:103730006401002000F07F45A4707D3F000C004034
:103740000802002000080240704700BF00B583B0A7
:10375000002100910C4B5A6C42F480425A645A6C1E
:1037600002F480420092009A01911A6C42F0805259
:103770001A641B6C03F080530193019B0720FDF733
:10378000A7FE03B05DF804FB00380240704700BF9D
:10379000FEE700BFFEE700BFFEE700BFFEE700BF99
:1037A000704700BF704700BF704700BF08B5FDF706
:1037B0002DFB08BD08B50120FEF7FAF908BD00BFD2
:1037C00008B50220FEF7F4F908BD00BF08B50420D3
:1037D000FEF7EEF908BD00BF08B50820FEF7E8F9CE
:1037E00008BD00BF08B50248FEF708F808BD00BFD5
:1037F0000803002008B50248FDF7F2FC08BD00BF31
:103800006401002008B52020FEF7D2F94020FEF721
:10381000CFF94FF48070FEF7CBF94FF40070FEF74C
:10382000C7F908BD08B50248FEF7E6FD08BD00BFB0
:10383000C802002008B50248FEF7DEFD08BD00BF43
:10384000C801002008B50248FFF726FB08BD00BFED
:103850006803002008B54FF40050FEF7A9F94FF4B3
:103860000040FEF7A5F908BD08B50B4B1B6813B95E
:103870000A4A094B1A60084B1A68131869468B42AA
:1038800006D900F00DFB0C2303604FF0FF3008BD9C
:1038900001490B60104608BD50010020B003002014
:1038A000054BD3F8882042F47002C3F888204FF00B
:1038B00000629A60704700BF00ED00E000B587B07D
:1038C00000230293039304930593009301931548F7
:1038D0004FF08042026042F2CF024260836040F6C5
:1038E000C312C260036180238361FEF78BFE08B1BF
:1038F000FFF72AFF06A94FF4805341F8103D09480D
:10390000FEF764FF08B1FFF71FFF00230093019348
:1039100069460448FEF7FAFF08B1FFF715FF07B044
:103920005DF804FBC802002000B587B000230293B5
:10393000039304930593009301931548154A02607D
:1039400042F2CF024260836040F2E732C26003611C
:1039500080238361FEF756FE08B1FFF7F5FE06A946
:103960004FF4805341F8103D0948FEF72FFF08B18E
:10397000FFF7EAFE00230093019369460448FEF72F
:10398000C5FF08B1FFF7E0FE07B05DF804FB00BF1C
:10399000C80100200008004000B587B00368304A25
:1039A00093420CD1002301932E4B5A6C42F001023A
:1039B0005A645B6C03F001030193019B4DE0B3F18A
:1039C000804F14D10021029103F50E331A6C42F09E
:1039D00001021A641B6C03F001030293029B0A4666
:1039E0001C20FDF787FD1C20FDF7B6FD35E01E4AC3
:1039F00093420CD1002303931A4B1A6C42F002023B
:103A00001A641B6C03F002030393039B25E0174A1F
:103A1000934213D100210491124B1A6C42F004021C
:103A20001A641B6C03F004030493049B0A461E20D3
:103A3000FDF760FD1E20FDF78FFD0EE00C4A93425E
:103A40000BD100230593074B1A6C42F008021A644D
:103A50001B6C03F008030593059B07B05DF804FB9E
:103A6000000001400038024000040040000800400F
:103A7000000C004000B589B0002303930493059324
:103A8000069307930368274A934217D100230093B4
:103A9000254B1A6B42F001021A631B6B03F0010302
:103AA0000093009B4FF4807303930223049301233C
:103AB000079303A91D48FDF78DFF30E01C4A934290
:103AC00015D100230193184B1A6B42F001021A63BF
:103AD0001B6B03F001030193019B4023039302231B
:103AE0000493079303A91148FDF774FF17E0114AE7
:103AF000934214D1002302930B4B1A6B42F0010244
:103B00001A631B6B03F001030293029B01230393CF
:103B100002230493079303A90448FDF75BFF09B050
:103B20005DF804FB00000140003802400000024044
:103B300000040040000C004010B596B00024129420
:103B40001394149415941094119409940A940B945A
:103B50000C940D940E940F942022214601A800F09D
:103B6000CBF92948294B03605323436084604FF409
:103B7000FA63C3600461446180238361FEF742FD00
:103B800008B1FFF7E1FD16A94FF4805341F8103D4D
:103B90001D48FEF71BFE08B1FFF7D6FD1A48FEF7D9
:103BA0004DFD08B1FFF7D0FD00231093119310A92C
:103BB0001548FEF7ABFE08B1FFF7C6FD6023099379
:103BC00000220A920B920C920D920E920F9209A96A
:103BD0000D48FEF77FFD08B1FFF7B6FD0023019306
:103BE00002930393049305934FF4005206920893B3
:103BF00001A90548FEF7C8FE08B1FFF7A5FD024878
:103C0000FFF738FF16B010BD880200200000014009
:103C100000B58FB000230A930B930C930D93089378
:103C200009930193029303930493059306930793D7
:103C30001F48204A02605322426083604FF4FA62B8
:103C4000C260036180238361FEF7DCFC08B1FFF7EB
:103C50007BFD0EA94FF4805341F8103D1448FEF748
:103C6000B5FD08B1FFF770FD1148FEF7E7FC08B19C
:103C7000FFF76AFD00230893099308A90C48FEF793
:103C800045FE08B1FFF760FD602301930022029218
:103C90000392059201A90648FEF71CFD08B1FFF743
:103CA00053FD0348FFF7E6FE0FB05DF804FB00BFCD
:103CB000480200200004004000B58FB000230A93A2
:103CC0000B930C930D930893099301930293039321
:103CD00004930593069307931F48204A02605322DA
:103CE000426083604FF4FA62C260036180238361A3
:103CF000FEF788FC08B1FFF727FD0EA94FF48053AB
:103D000041F8103D1448FEF761FD08B1FFF71CFDB6
:103D10001148FEF793FC08B1FFF716FD0023089346
:103D2000099308A90C48FEF7F1FD08B1FFF70CFD57
:103D300060230193002202920392059201A9064892
:103D4000FEF7C8FC08B1FFF7FFFC0348FFF792FE3F
:103D50000FB05DF804FB00BF08020020000C00401B
:103D600008B50A480A4B03604FF4E133436000236F
:103D70008360C36003610C2242618361C361FEF70B
:103D800067FF08B1FFF7E0FC08BD00BF6803002033
:103D90000044004030B589B0002303930493059399
:103DA000069307930268254B9A4244D104460025A6
:103DB000019503F5FA331A6C42F400321A641A6C56
:103DC00002F400320192019A02951A6B42F001024C
:103DD0001A631B6B03F001030293029B0C230393F2
:103DE00002230493032306930723079303A914488C
:103DF000FDF7F0FD1348144B03604FF00063436080
:103E000040238360C5604FF4806303614561856131
:103E1000C56105624562FDF73FFC08B1FFF794FC00
:103E2000084B23639C63002211462620FDF762FBAA
:103E30002620FDF791FB09B030BD00BF00440040D3
:103E40000000024008030020A0600240DFF834D0E8
:103E5000002103E00C4B5B58435004310B480C4BE2
:103E600042189A42F6D30B4A02E0002342F8043B80
:103E7000094B9A42F9D3FFF713FD00F017F8FFF74B
:103E8000CDFA7047000002207449000800000020AD
:103E90002401002024010020AC030020FEE70000E4
:103EA000014B1868704700BF2001002070B50E4B11
:103EB0000E4CE41AA41000251E46A54204D056F864
:103EC000253098470135F8E700F00AFD084C094B0A
:103ED000E41AA41000251E46A54204D056F8253049
:103EE00098470135F8E770BD6C4900086C49000837
:103EF000704900086C49000802440346934202D00E
:103F000003F8011BFAE7704738B5124B1C68A36B26
:103F10000546D3B9182000F0D5F843F20E33A0635C
:103F200003804AF6CD33438041F2342383804EF23E
:103F30006D63C3804DF6EC630381052343810B233E
:103F4000838101220023C0E90423A36B00221D61A9
:103F50005A6138BD20010020194B10B51C68A36BB5
:103F6000D3B9182000F0AEF843F20E33A0630380FB
:103F70004AF6CD33438041F2342383804EF26D63A1
:103F8000C3804DF6EC630381052343810B238381BA
:103F900001220023C0E90423A16B0A4C0B69486984
:103FA000094A5C4302FB0040A3FB022301320344A5
:103FB00043F10003C1E9042323F0004010BD00BF1A
:103FC000200100202DF451582D7F954C0CB430B5B4
:103FD000164B0C1E9DB01D6804DA8B232B604FF02E
:103FE000FF301EE04FF40273ADF8143014BF04F13B
:103FF000FF332346049307934FF6FF730290069016
:10400000ADF81630209A21AB02A92846019300F0A2
:1040100067F9431CBCBF8B232B6014B1029B0022A9
:104020001A701DB0BDE8304002B07047200100207A
:104030000EB400B59CB04FF402711DABADF8141076
:10404000029006906FF000410A48049107914FF6E4
:10405000FF7153F8042BADF816100068019302A904
:1040600000F03EF9029B00221A701CB05DF804EBD0
:1040700003B070472001002013B5084B044600220E
:104080001868694600F00CF80028BCBF4FF0FF33F9
:104090000093009804B1206002B010BD2001002000
:1040A00038B5074C0023054608461146236000F04A
:1040B0000FFC431C02D1236803B12B6038BD00BF45
:1040C000A8030020024B0146186800F051B800BF59
:1040D0002001002038B50546002946D051F8043C9F
:1040E0000C1F002BB8BFE41800F0C0FB1F4A136878
:1040F000114613B96360146032E0A3420ED92268FE
:10410000A018834204BF18685B68636004BF12187C
:1041100022600C6024E0A24203D813465A68002AA9
:10412000F9D118681918A1420BD121680144581817
:104130008242196014D1106852685A6001441960B3
:104140000EE002D90C232B600AE02168601882423D
:1041500004BF10685268626004BF091821605C6087
:104160002846BDE8384000F082BB38BD5C01002025
:1041700070B5CD1C25F0030508350C2D38BF0C2576
:10418000002D064601DBA94202D90C23336046E02C
:1041900000F06CFB234B1C681A462146A1B10B684A
:1041A0005B1B0ED40B2B03D90B60CC18CD501EE03B
:1041B0008C420DBF63684B686360136018BF0C4688
:1041C00015E00C464968E9E7174C23681BB93046EF
:1041D00000F016FB20602946304600F011FB431C1E
:1041E00018D0C41C24F00304A0420DD12560304631
:1041F00000F03DFB04F10B00231D20F00700C31A63
:104200000ED05A42E25070BD211A304600F0F8FA42
:104210000130EBD10C233360304600F028FB002046
:1042200070BD00BF5C010020580100202DE9F0475F
:104230008E689E4282460C46914698463ED88A89B0
:1042400012F4906F3AD0256809696F1A65690223E4
:1042500005EB450595FBF3F57B1C43449D4238BFB8
:104260001D4653050FD52946FFF782FF064698B134
:104270003A46216900F0D4FAA38923F4906343F00D
:104280008003A38113E02A4600F0F2FA064670B9D3
:1042900021695046FFF71EFF0C23CAF80030A3899E
:1042A00043F04003A3814FF0FF30BDE8F087266163
:1042B00065613E44ED1B2660A5604646464528BF25
:1042C000464632464946206800F0B5FAA3689B1B73
:1042D000A36023681E4426600020BDE8F08700002C
:1042E0002DE9F04F9DB0804603938B891C060D4647
:1042F00016460DD50B695BB94021FFF739FF2860E1
:10430000286118B90C23C8F80030CDE040236B6158
:104310000023099320238DF82930DFF89CB1302346
:104320008DF82A3037463C4614F8013B1BB9B7EBF1
:10433000060910D003E0252BF9D02746F3E74B46BA
:10434000324629464046FFF771FF013000F0A78052
:10435000099B4B4409933B78002B00F0A08000237D
:104360004FF0FF3204930793059206938DF8533074
:104370001A930126052221784E48FCF7B9FC671CE8
:10438000049B38B14B4A801A06FA00F01843049097
:104390003C46EFE7D90644BF20228DF853201A0788
:1043A00044BF2B228DF8532022782A2A03D0079A63
:1043B00000210A200BE0039A111D12680391002AC4
:1043C00010DA524243F00200079204900BE02746B5
:1043D00001343B78303B092B03D800FB023201212A
:1043E000F5E701B107923B782E2B1ED17B782A2B63
:1043F0000AD1039B1A1D1B680392002BB8BF4FF014
:10440000FF330237059310E000230593781C19460B
:104410000A24074601303A78303A092A03D804FBC7
:1044200001210123F5E703B10591032239782248E0
:10443000FCF75EFC40B14023CBEB000003FA00F038
:10444000049B18430490013739781C488DF82810D4
:1044500006227E1CFCF74CFC88B1194B33B9039B38
:10446000073323F007030833039314E003AB0093EF
:104470002A46144B04A94046AFF3008007E003AB83
:1044800000932A460F4B04A9404600F093F8B0F180
:10449000FF3F824603D0099B5344099342E7AB890F
:1044A0005B0601D4099801E04FF0FF301DB0BDE874
:1044B000F08F00BF30490008364900083A4900082B
:1044C000000000002D4200082DE9F04791461F46EC
:1044D0000A698B68DDF820809342B8BF1346C9F89B
:1044E000003091F8432006460C4612B10133C9F85A
:1044F00000302368990642BFD9F800300233C9F86A
:104500000030256815F0060510D104F1190A07E0FE
:104510000123524639463046C04701301AD0013592
:10452000E368D9F800209B1A9D42F1DB94F84330F0
:104530002268003318BF012392060FD5E1185A1CD8
:10454000302081F84300224494F8451082F843104B
:10455000023303E04FF0FF30BDE8F08704F143027F
:1045600039463046C0470130F4D02268D9F80050AF
:10457000E36802F00602042A08BF5D1B2269A368F3
:104580000CBF25EAE57500259342C4BF9B1AED18C0
:104590004FF000091A344D4509D00123224639460F
:1045A0003046C0470130D5D009F10109F3E70020BA
:1045B000BDE8F0872DE9F04317460A7E85B06E2AE4
:1045C000984606460C460C9B01F1430E00F0AE8067
:1045D00011D8632A22D009D8002A00F0BB80582ABB
:1045E00040F0CA8081F84520834955E0642A1ED0F6
:1045F000692A1CD0C0E0732A00F0B08009D86F2A65
:104600002ED0702A40F0B8800A6842F020020A607A
:104610003EE0752A24D0782A3AD0ADE01A6801F13C
:104620004205111D1960136884F84230A8E0216822
:104630001A6811F0800F02D0111D196008E011F006
:10464000400F02F10401196002D0B2F9003000E01D
:104650001368002B3CDA2D225B4284F8432037E0BC
:1046600021681A6811F0800F02D0111D196007E04F
:1046700011F0400F02F10401196001D0138800E02D
:104680001368227E5C496F2A14BF0A2208221BE0AD
:1046900078225A4984F845202268186812F0800F61
:1046A00000F104051D6003D1550601D5038800E023
:1046B0000368D00744BF42F0200222601BB9226881
:1046C00022F0200222601022002084F8430001E042
:1046D00049490A226568A560002D08DB206820F0A2
:1046E000040020602BB9002D7DD175460CE0002B15
:1046F00079D07546B3FBF2F002FB1033CB5C05F8C2
:10470000013D03460028F5D1082A0BD12368DA07BA
:1047100008D5236962689A42DEBF302305F8013C60
:1047200005F1FF35C5EB0E0323612EE008681A681A
:10473000496910F0800F03D0101D1860136808E05D
:1047400010F0400F02F104001860136801D01980C6
:1047500000E0196000232361754616E01A68111DF8
:1047600019601568626800212846FCF7C1FA08B193
:10477000401B6060636804E004F1420584F8422055
:1047800001232361002384F84330CDF800803B46A9
:1047900003AA21463046FFF797FE013002D14FF0C1
:1047A000FF3026E023692A4639463046C0470130AB
:1047B000F5D023689B0710D5002504F1190907E0FF
:1047C00001234A4639463046C0470130E7D001351B
:1047D000E368039A9B1A9D42F2DBE068039B9842D0
:1047E000B8BF184605E00B7884F8423004F1420562
:1047F0008AE705B0BDE8F083414900085249000846
:1048000038B5064C0023054608462360FFF72CF810
:10481000431C02D1236803B12B6038BDA8030020DC
:1048200010B5431E0A44914204D011F8014B03F81D
:10483000014FF8E710BD884210B501EB020301D823
:10484000421E0BE09842FBD28118D21AD34204D008
:1048500013F8014D01F8014DF8E710BD994204D05D
:1048600011F8014B02F8014FF8E710BD704770478F
:10487000F8B5074615460E4621B91146BDE8F84081
:10488000FFF776BC1AB9FFF725FC2846F8BD00F003
:1048900015F885420ED929463846FFF769FC0446CB
:1048A00050B131462A46FFF7BBFF31463846FFF785
:1048B00011FC01E03046F8BD2046F8BD51F8040C6B
:1048C0000028BEBF091851F8043CC01804387047CE
:1048D000024B58221A604FF0FF307047A8030020A7
:1048E000F8B500BFF8BC08BC9E467047F8B500BFDD
:0848F000F8BC08BC9E467047AD
:1048F8000006101600061016000000000000000058
:10490800010203040607080900000000010203046D
:104918000D202020202063757272656E74206E6FE2
:1049280074653A2025640000232D302B2000686C24
:104938004C006566674546470030313233343536BA
:1049480037383941424344454600303132333435F3
:0C49580036373839616263646566000020
:084964009CC0FF7F0100000070
:04496C00C501000879
:04497000A101000899
:1049740001000000100000001F002100230025009A
:10498400270029002C002E003100340037003A00A3
:104994003E004100450049004E00520057005D00B2
:1049A400620068006E0075007B0083008B0093003A
:1049B4009C00A500AF00B900C400D000DC00E900F1
:1049C400F70006011501260137014A015D01720154
:1049D40088019F01B801D201EE010B022A024B02A9
:1049E4006E029302BA02E40210033F037003A403AD
:1049F400DC03170455049704DD0427057505C80571
:104A040020067D06E0064907B8072D08A9082D09E8
:104A1400B9094D0AEA0A900B400CFA0CC00D910E2C
:104A24006F0F5A1053115B1272132C000024F40000
:104A34000000000000000000000000000000000072
:104A44000000000000000000000000000000000062
:104A54000000000000000000000000000000000052
:104A64000000000000000000000000000000000042
:104A74000000000000000000000000000000000032
:104A84000000000000000000000000000000000022
:044A9400C00000203E
:0400000508003E4D64
:00000001FF
